:100000000C9434000C943E000C943E000C943E0082
:100010000C943E000C943E000C943E000C943E0068
:100020000C943E000C943E000C943E000C943E0058
:100030000C943E000C943E000C943E000C943E0048
:100040000C943E000C943E000C943E000C943E0038
:100050000C943E000C943E000C943E000C943E0028
:100060000C943E000C943E0011241FBECFEFD8E04C
:10007000DEBFCDBF0E9440000C9485000C940000B0
:100080003D9A3C9A3B9A239A229A219A459829981C
:100090002B9A449A2A9A439A24ED30E987EF94E008
:1000A0002150304080409040D9F700C000C000008F
:1000B0002A98299A24E530EA8CEF91E021503040CB
:1000C00080409040D9F700C000C00000459A2A9AAD
:1000D00043982B9824ED30E987EF94E0215030408D
:1000E00080409040D9F700C000C000004498439A77
:1000F00024E530EA8CEF91E0215030408040904080
:0E010000D9F700C000C00000C1CFF894FFCFB7
:00000001FF
